{
  "_format": "hh-sol-artifact-1",
  "contractName": "IoTData",
  "sourceName": "contracts/IoTData.sol",
  "abi": [
    {
      "inputs": [],
      "stateMutability": "nonpayable",
      "type": "constructor"
    },
    {
      "inputs": [],
      "name": "AccessControlBadConfirmation",
      "type": "error"
    },
    {
      "inputs": [
        {
          "internalType": "address",
          "name": "account",
          "type": "address"
        },
        {
          "internalType": "bytes32",
          "name": "neededRole",
          "type": "bytes32"
        }
      ],
      "name": "AccessControlUnauthorizedAccount",
      "type": "error"
    },
    {
      "inputs": [
        {
          "internalType": "address",
          "name": "target",
          "type": "address"
        }
      ],
      "name": "AddressEmptyCode",
      "type": "error"
    },
    {
      "inputs": [
        {
          "internalType": "address",
          "name": "implementation",
          "type": "address"
        }
      ],
      "name": "ERC1967InvalidImplementation",
      "type": "error"
    },
    {
      "inputs": [],
      "name": "ERC1967NonPayable",
      "type": "error"
    },
    {
      "inputs": [],
      "name": "FailedCall",
      "type": "error"
    },
    {
      "inputs": [],
      "name": "InvalidInitialization",
      "type": "error"
    },
    {
      "inputs": [],
      "name": "NotInitializing",
      "type": "error"
    },
    {
      "inputs": [],
      "name": "UUPSUnauthorizedCallContext",
      "type": "error"
    },
    {
      "inputs": [
        {
          "internalType": "bytes32",
          "name": "slot",
          "type": "bytes32"
        }
      ],
      "name": "UUPSUnsupportedProxiableUUID",
      "type": "error"
    },
    {
      "anonymous": false,
      "inputs": [
        {
          "indexed": true,
          "internalType": "address",
          "name": "patient",
          "type": "address"
        },
        {
          "indexed": false,
          "internalType": "string",
          "name": "description",
          "type": "string"
        },
        {
          "indexed": false,
          "internalType": "uint256",
          "name": "timestamp",
          "type": "uint256"
        }
      ],
      "name": "AnomalyDetected",
      "type": "event"
    },
    {
      "anonymous": false,
      "inputs": [
        {
          "indexed": false,
          "internalType": "uint64",
          "name": "version",
          "type": "uint64"
        }
      ],
      "name": "Initialized",
      "type": "event"
    },
    {
      "anonymous": false,
      "inputs": [
        {
          "indexed": true,
          "internalType": "bytes32",
          "name": "role",
          "type": "bytes32"
        },
        {
          "indexed": true,
          "internalType": "bytes32",
          "name": "previousAdminRole",
          "type": "bytes32"
        },
        {
          "indexed": true,
          "internalType": "bytes32",
          "name": "newAdminRole",
          "type": "bytes32"
        }
      ],
      "name": "RoleAdminChanged",
      "type": "event"
    },
    {
      "anonymous": false,
      "inputs": [
        {
          "indexed": true,
          "internalType": "bytes32",
          "name": "role",
          "type": "bytes32"
        },
        {
          "indexed": true,
          "internalType": "address",
          "name": "account",
          "type": "address"
        },
        {
          "indexed": true,
          "internalType": "address",
          "name": "sender",
          "type": "address"
        }
      ],
      "name": "RoleGranted",
      "type": "event"
    },
    {
      "anonymous": false,
      "inputs": [
        {
          "indexed": true,
          "internalType": "bytes32",
          "name": "role",
          "type": "bytes32"
        },
        {
          "indexed": true,
          "internalType": "address",
          "name": "account",
          "type": "address"
        },
        {
          "indexed": true,
          "internalType": "address",
          "name": "sender",
          "type": "address"
        }
      ],
      "name": "RoleRevoked",
      "type": "event"
    },
    {
      "anonymous": false,
      "inputs": [
        {
          "indexed": true,
          "internalType": "address",
          "name": "implementation",
          "type": "address"
        }
      ],
      "name": "Upgraded",
      "type": "event"
    },
    {
      "anonymous": false,
      "inputs": [
        {
          "indexed": true,
          "internalType": "address",
          "name": "patient",
          "type": "address"
        },
        {
          "indexed": false,
          "internalType": "bytes32",
          "name": "dataHash",
          "type": "bytes32"
        },
        {
          "indexed": false,
          "internalType": "uint256",
          "name": "timestamp",
          "type": "uint256"
        }
      ],
      "name": "VitalsLogged",
      "type": "event"
    },
    {
      "inputs": [],
      "name": "ADMIN_ROLE",
      "outputs": [
        {
          "internalType": "bytes32",
          "name": "",
          "type": "bytes32"
        }
      ],
      "stateMutability": "view",
      "type": "function"
    },
    {
      "inputs": [],
      "name": "DEFAULT_ADMIN_ROLE",
      "outputs": [
        {
          "internalType": "bytes32",
          "name": "",
          "type": "bytes32"
        }
      ],
      "stateMutability": "view",
      "type": "function"
    },
    {
      "inputs": [],
      "name": "ORACLE_ROLE",
      "outputs": [
        {
          "internalType": "bytes32",
          "name": "",
          "type": "bytes32"
        }
      ],
      "stateMutability": "view",
      "type": "function"
    },
    {
      "inputs": [],
      "name": "UPGRADE_INTERFACE_VERSION",
      "outputs": [
        {
          "internalType": "string",
          "name": "",
          "type": "string"
        }
      ],
      "stateMutability": "view",
      "type": "function"
    },
    {
      "inputs": [
        {
          "internalType": "bytes32",
          "name": "role",
          "type": "bytes32"
        }
      ],
      "name": "getRoleAdmin",
      "outputs": [
        {
          "internalType": "bytes32",
          "name": "",
          "type": "bytes32"
        }
      ],
      "stateMutability": "view",
      "type": "function"
    },
    {
      "inputs": [
        {
          "internalType": "address",
          "name": "_patient",
          "type": "address"
        }
      ],
      "name": "getVitalsCount",
      "outputs": [
        {
          "internalType": "uint256",
          "name": "",
          "type": "uint256"
        }
      ],
      "stateMutability": "view",
      "type": "function"
    },
    {
      "inputs": [
        {
          "internalType": "bytes32",
          "name": "role",
          "type": "bytes32"
        },
        {
          "internalType": "address",
          "name": "account",
          "type": "address"
        }
      ],
      "name": "grantRole",
      "outputs": [],
      "stateMutability": "nonpayable",
      "type": "function"
    },
    {
      "inputs": [
        {
          "internalType": "bytes32",
          "name": "role",
          "type": "bytes32"
        },
        {
          "internalType": "address",
          "name": "account",
          "type": "address"
        }
      ],
      "name": "hasRole",
      "outputs": [
        {
          "internalType": "bool",
          "name": "",
          "type": "bool"
        }
      ],
      "stateMutability": "view",
      "type": "function"
    },
    {
      "inputs": [
        {
          "internalType": "address",
          "name": "defaultAdmin",
          "type": "address"
        },
        {
          "internalType": "address",
          "name": "_rolesContract",
          "type": "address"
        }
      ],
      "name": "initialize",
      "outputs": [],
      "stateMutability": "nonpayable",
      "type": "function"
    },
    {
      "inputs": [
        {
          "internalType": "address",
          "name": "_patient",
          "type": "address"
        },
        {
          "internalType": "bytes32",
          "name": "_dataHash",
          "type": "bytes32"
        }
      ],
      "name": "logVitals",
      "outputs": [],
      "stateMutability": "nonpayable",
      "type": "function"
    },
    {
      "inputs": [
        {
          "internalType": "address",
          "name": "",
          "type": "address"
        },
        {
          "internalType": "uint256",
          "name": "",
          "type": "uint256"
        }
      ],
      "name": "patientVitals",
      "outputs": [
        {
          "internalType": "bytes32",
          "name": "dataHash",
          "type": "bytes32"
        },
        {
          "internalType": "uint256",
          "name": "timestamp",
          "type": "uint256"
        }
      ],
      "stateMutability": "view",
      "type": "function"
    },
    {
      "inputs": [],
      "name": "proxiableUUID",
      "outputs": [
        {
          "internalType": "bytes32",
          "name": "",
          "type": "bytes32"
        }
      ],
      "stateMutability": "view",
      "type": "function"
    },
    {
      "inputs": [
        {
          "internalType": "bytes32",
          "name": "role",
          "type": "bytes32"
        },
        {
          "internalType": "address",
          "name": "callerConfirmation",
          "type": "address"
        }
      ],
      "name": "renounceRole",
      "outputs": [],
      "stateMutability": "nonpayable",
      "type": "function"
    },
    {
      "inputs": [
        {
          "internalType": "address",
          "name": "_patient",
          "type": "address"
        },
        {
          "internalType": "string",
          "name": "_description",
          "type": "string"
        }
      ],
      "name": "reportAnomaly",
      "outputs": [],
      "stateMutability": "nonpayable",
      "type": "function"
    },
    {
      "inputs": [
        {
          "internalType": "bytes32",
          "name": "role",
          "type": "bytes32"
        },
        {
          "internalType": "address",
          "name": "account",
          "type": "address"
        }
      ],
      "name": "revokeRole",
      "outputs": [],
      "stateMutability": "nonpayable",
      "type": "function"
    },
    {
      "inputs": [],
      "name": "rolesContract",
      "outputs": [
        {
          "internalType": "contract HealthChainRoles",
          "name": "",
          "type": "address"
        }
      ],
      "stateMutability": "view",
      "type": "function"
    },
    {
      "inputs": [
        {
          "internalType": "bytes4",
          "name": "interfaceId",
          "type": "bytes4"
        }
      ],
      "name": "supportsInterface",
      "outputs": [
        {
          "internalType": "bool",
          "name": "",
          "type": "bool"
        }
      ],
      "stateMutability": "view",
      "type": "function"
    },
    {
      "inputs": [
        {
          "internalType": "address",
          "name": "newImplementation",
          "type": "address"
        },
        {
          "internalType": "bytes",
          "name": "data",
          "type": "bytes"
        }
      ],
      "name": "upgradeToAndCall",
      "outputs": [],
      "stateMutability": "payable",
      "type": "function"
    }
  ],
  "bytecode": "0x60a06040523060805234801561001457600080fd5b5061001d610022565b6100d4565b7ff0c57e16840df040f15088dc2f81fe391c3923bec73e23a9662efc9c229c6a00805468010000000000000000900460ff16156100725760405163f92ee8a960e01b815260040160405180910390fd5b80546001600160401b03908116146100d15780546001600160401b0319166001600160401b0390811782556040519081527fc7f505b2f371ae2175ee4913f4499e1f2633a7b5936321eed1cdaeb6115181d29060200160405180910390a15b50565b6080516111a46100fd60003960008181610a9601528181610abf0152610c2201526111a46000f3fe6080604052600436106101095760003560e01c8063724088ba11610095578063a217fddf11610064578063a217fddf1461030e578063ad3cb1cc14610323578063ca53b39114610361578063cb2533e114610399578063d547741f146103b957600080fd5b8063724088ba1461024f57806375b238fc146102855780637ffe715f146102b957806391d14854146102ee57600080fd5b806336568abe116100dc57806336568abe146101c7578063485cc955146101e75780634f1ef2861461020757806352d1902d1461021a578063720f55ac1461022f57600080fd5b806301ffc9a71461010e57806307e2cea514610143578063248a9ca3146101855780632f2ff15d146101a5575b600080fd5b34801561011a57600080fd5b5061012e610129366004610e89565b6103d9565b60405190151581526020015b60405180910390f35b34801561014f57600080fd5b506101777f68e79a7bf1e0bc45d0a330c573bc367f9cf464fd326078812f301165fbda4ef181565b60405190815260200161013a565b34801561019157600080fd5b506101776101a0366004610eba565b610410565b3480156101b157600080fd5b506101c56101c0366004610eef565b610432565b005b3480156101d357600080fd5b506101c56101e2366004610eef565b610454565b3480156101f357600080fd5b506101c5610202366004610f1b565b61048c565b6101c5610215366004610fd1565b6105da565b34801561022657600080fd5b506101776105f9565b34801561023b57600080fd5b506101c561024a366004611033565b610616565b34801561025b57600080fd5b5061017761026a36600461105d565b6001600160a01b031660009081526001602052604090205490565b34801561029157600080fd5b506101777fa49807205ce4d355092ef5a8a18f56e8913cf4a201fbe287825b095693c2177581565b3480156102c557600080fd5b506102d96102d4366004611033565b610782565b6040805192835260208301919091520161013a565b3480156102fa57600080fd5b5061012e610309366004610eef565b6107be565b34801561031a57600080fd5b50610177600081565b34801561032f57600080fd5b50610354604051806040016040528060058152602001640352e302e360dc1b81525081565b60405161013a91906110be565b34801561036d57600080fd5b50600054610381906001600160a01b031681565b6040516001600160a01b03909116815260200161013a565b3480156103a557600080fd5b506101c56103b4366004610fd1565b6107f6565b3480156103c557600080fd5b506101c56103d4366004610eef565b610907565b60006001600160e01b03198216637965db0b60e01b148061040a57506301ffc9a760e01b6001600160e01b03198316145b92915050565b600090815260008051602061114f833981519152602052604090206001015490565b61043b82610410565b61044481610923565b61044e8383610930565b50505050565b6001600160a01b038116331461047d5760405163334bd91960e11b815260040160405180910390fd5b61048782826109dc565b505050565b6000610496610a58565b805490915060ff600160401b820416159067ffffffffffffffff166000811580156104be5750825b905060008267ffffffffffffffff1660011480156104db5750303b155b9050811580156104e9575080155b156105075760405163f92ee8a960e01b815260040160405180910390fd5b845467ffffffffffffffff19166001178555831561053157845460ff60401b1916600160401b1785555b610539610a81565b610544600088610930565b5061056f7fa49807205ce4d355092ef5a8a18f56e8913cf4a201fbe287825b095693c2177588610930565b50600080546001600160a01b0319166001600160a01b03881617905583156105d157845460ff60401b19168555604051600181527fc7f505b2f371ae2175ee4913f4499e1f2633a7b5936321eed1cdaeb6115181d29060200160405180910390a15b50505050505050565b6105e2610a8b565b6105eb82610b30565b6105f58282610b5a565b5050565b6000610603610c17565b5060008051602061112f83398151915290565b7f68e79a7bf1e0bc45d0a330c573bc367f9cf464fd326078812f301165fbda4ef161064081610923565b600054604051638f9c79ed60e01b81526001600160a01b03858116600483015290911690638f9c79ed90602401602060405180830381865afa15801561068a573d6000803e3d6000fd5b505050506040513d601f19601f820116820180604052508101906106ae91906110d1565b6106f15760405162461bcd60e51b815260206004820152600f60248201526e125b9d985b1a59081c185d1a595b9d608a1b60448201526064015b60405180910390fd5b6001600160a01b038316600081815260016020818152604080842081518083018352888152428185018181528354808801855593885294909620905160029092020190815591519190920155517fcb708ac787299f473c3668cb3ceeeee36b88c042fc270693bf5b9f3b1917b90a9161077591869190918252602082015260400190565b60405180910390a2505050565b6001602052816000526040600020818154811061079e57600080fd5b600091825260209091206002909102018054600190910154909250905082565b600091825260008051602061114f833981519152602090815260408084206001600160a01b0393909316845291905290205460ff1690565b7f68e79a7bf1e0bc45d0a330c573bc367f9cf464fd326078812f301165fbda4ef161082081610923565b600054604051638f9c79ed60e01b81526001600160a01b03858116600483015290911690638f9c79ed90602401602060405180830381865afa15801561086a573d6000803e3d6000fd5b505050506040513d601f19601f8201168201806040525081019061088e91906110d1565b6108cc5760405162461bcd60e51b815260206004820152600f60248201526e125b9d985b1a59081c185d1a595b9d608a1b60448201526064016106e8565b826001600160a01b03167fe0946ce74d866f914f1b6a744b1af13f38b39051e9cc7210984cbb7b3c8fe60783426040516107759291906110f3565b61091082610410565b61091981610923565b61044e83836109dc565b61092d8133610c60565b50565b600060008051602061114f83398151915261094b84846107be565b6109cb576000848152602082815260408083206001600160a01b03871684529091529020805460ff191660011790556109813390565b6001600160a01b0316836001600160a01b0316857f2f8788117e7eff1d82e926ec794901d17c78024a50270940304540a733656f0d60405160405180910390a4600191505061040a565b600091505061040a565b5092915050565b600060008051602061114f8339815191526109f784846107be565b156109cb576000848152602082815260408083206001600160a01b0387168085529252808320805460ff1916905551339287917ff6391f5c32d9c69d2a47ea670b442974b53935d1edc7fd64eb21e047a839171b9190a4600191505061040a565b6000807ff0c57e16840df040f15088dc2f81fe391c3923bec73e23a9662efc9c229c6a0061040a565b610a89610c99565b565b306001600160a01b037f0000000000000000000000000000000000000000000000000000000000000000161480610b1257507f00000000000000000000000000000000000000000000000000000000000000006001600160a01b0316610b0660008051602061112f833981519152546001600160a01b031690565b6001600160a01b031614155b15610a895760405163703e46dd60e11b815260040160405180910390fd5b7fa49807205ce4d355092ef5a8a18f56e8913cf4a201fbe287825b095693c217756105f581610923565b816001600160a01b03166352d1902d6040518163ffffffff1660e01b8152600401602060405180830381865afa925050508015610bb4575060408051601f3d908101601f19168201909252610bb191810190611115565b60015b610bdc57604051634c9c8ce360e01b81526001600160a01b03831660048201526024016106e8565b60008051602061112f8339815191528114610c0d57604051632a87526960e21b8152600481018290526024016106e8565b6104878383610cbe565b306001600160a01b037f00000000000000000000000000000000000000000000000000000000000000001614610a895760405163703e46dd60e11b815260040160405180910390fd5b610c6a82826107be565b6105f55760405163e2517d3f60e01b81526001600160a01b0382166004820152602481018390526044016106e8565b610ca1610d14565b610a8957604051631afcd79f60e31b815260040160405180910390fd5b610cc782610d2e565b6040516001600160a01b038316907fbc7cd75a20ee27fd9adebab32041f755214dbc6bffa90cc0225b39da2e5c2d3b90600090a2805115610d0c576104878282610d93565b6105f5610e2f565b6000610d1e610a58565b54600160401b900460ff16919050565b806001600160a01b03163b600003610d6457604051634c9c8ce360e01b81526001600160a01b03821660048201526024016106e8565b60008051602061112f83398151915280546001600160a01b0319166001600160a01b0392909216919091179055565b60606000610da18484610e4e565b9050808015610dc4575060003d1180610dc457506000846001600160a01b03163b115b15610dd957610dd1610e63565b91505061040a565b8015610e0357604051639996b31560e01b81526001600160a01b03851660048201526024016106e8565b3d15610e1657610e11610e7d565b6109d5565b60405163d6bda27560e01b815260040160405180910390fd5b3415610a895760405163b398979f60e01b815260040160405180910390fd5b6000806000835160208501865af49392505050565b6040513d81523d6000602083013e3d602001810160405290565b6040513d6000823e3d81fd5b600060208284031215610e9b57600080fd5b81356001600160e01b031981168114610eb357600080fd5b9392505050565b600060208284031215610ecc57600080fd5b5035919050565b80356001600160a01b0381168114610eea57600080fd5b919050565b60008060408385031215610f0257600080fd5b82359150610f1260208401610ed3565b90509250929050565b60008060408385031215610f2e57600080fd5b610f3783610ed3565b9150610f1260208401610ed3565b634e487b7160e01b600052604160045260246000fd5b600067ffffffffffffffff80841115610f7657610f76610f45565b604051601f8501601f19908116603f01168101908282118183101715610f9e57610f9e610f45565b81604052809350858152868686011115610fb757600080fd5b858560208301376000602087830101525050509392505050565b60008060408385031215610fe457600080fd5b610fed83610ed3565b9150602083013567ffffffffffffffff81111561100957600080fd5b8301601f8101851361101a57600080fd5b61102985823560208401610f5b565b9150509250929050565b6000806040838503121561104657600080fd5b61104f83610ed3565b946020939093013593505050565b60006020828403121561106f57600080fd5b610eb382610ed3565b6000815180845260005b8181101561109e57602081850181015186830182015201611082565b506000602082860101526020601f19601f83011685010191505092915050565b602081526000610eb36020830184611078565b6000602082840312156110e357600080fd5b81518015158114610eb357600080fd5b6040815260006111066040830185611078565b90508260208301529392505050565b60006020828403121561112757600080fd5b505191905056fe360894a13ba1a3210667c828492db98dca3e2076cc3735a920a3ca505d382bbc02dd7bc7dec4dceedda775e58dd541e08a116c6c53815c0bd028192f7b626800a26469706673582212201008ad333328cb12f4b87da6439a38bb79446b4d997ee05ff8de8fe9f9b27c2d64736f6c63430008180033",
  "linkReferences": {},
  "deployedLinkReferences": {}
}