{
  "_format": "hh-sol-artifact-1",
  "contractName": "AccessRequest",
  "sourceName": "contracts/AccessRequest.sol",
  "abi": [
    {
      "inputs": [],
      "stateMutability": "nonpayable",
      "type": "constructor"
    },
    {
      "inputs": [],
      "name": "AccessControlBadConfirmation",
      "type": "error"
    },
    {
      "inputs": [
        {
          "internalType": "address",
          "name": "account",
          "type": "address"
        },
        {
          "internalType": "bytes32",
          "name": "neededRole",
          "type": "bytes32"
        }
      ],
      "name": "AccessControlUnauthorizedAccount",
      "type": "error"
    },
    {
      "inputs": [
        {
          "internalType": "address",
          "name": "target",
          "type": "address"
        }
      ],
      "name": "AddressEmptyCode",
      "type": "error"
    },
    {
      "inputs": [
        {
          "internalType": "address",
          "name": "implementation",
          "type": "address"
        }
      ],
      "name": "ERC1967InvalidImplementation",
      "type": "error"
    },
    {
      "inputs": [],
      "name": "ERC1967NonPayable",
      "type": "error"
    },
    {
      "inputs": [],
      "name": "FailedCall",
      "type": "error"
    },
    {
      "inputs": [],
      "name": "InvalidInitialization",
      "type": "error"
    },
    {
      "inputs": [],
      "name": "NotInitializing",
      "type": "error"
    },
    {
      "inputs": [],
      "name": "UUPSUnauthorizedCallContext",
      "type": "error"
    },
    {
      "inputs": [
        {
          "internalType": "bytes32",
          "name": "slot",
          "type": "bytes32"
        }
      ],
      "name": "UUPSUnsupportedProxiableUUID",
      "type": "error"
    },
    {
      "anonymous": false,
      "inputs": [
        {
          "indexed": true,
          "internalType": "uint256",
          "name": "requestId",
          "type": "uint256"
        },
        {
          "indexed": true,
          "internalType": "address",
          "name": "patient",
          "type": "address"
        },
        {
          "indexed": true,
          "internalType": "address",
          "name": "doctor",
          "type": "address"
        },
        {
          "indexed": false,
          "internalType": "uint256",
          "name": "expiresAt",
          "type": "uint256"
        }
      ],
      "name": "AccessApproved",
      "type": "event"
    },
    {
      "anonymous": false,
      "inputs": [
        {
          "indexed": true,
          "internalType": "uint256",
          "name": "requestId",
          "type": "uint256"
        },
        {
          "indexed": true,
          "internalType": "address",
          "name": "patient",
          "type": "address"
        },
        {
          "indexed": true,
          "internalType": "address",
          "name": "doctor",
          "type": "address"
        }
      ],
      "name": "AccessDenied",
      "type": "event"
    },
    {
      "anonymous": false,
      "inputs": [
        {
          "indexed": true,
          "internalType": "uint256",
          "name": "requestId",
          "type": "uint256"
        },
        {
          "indexed": true,
          "internalType": "address",
          "name": "doctor",
          "type": "address"
        },
        {
          "indexed": true,
          "internalType": "address",
          "name": "patient",
          "type": "address"
        },
        {
          "indexed": false,
          "internalType": "string",
          "name": "reason",
          "type": "string"
        }
      ],
      "name": "AccessRequested",
      "type": "event"
    },
    {
      "anonymous": false,
      "inputs": [
        {
          "indexed": true,
          "internalType": "uint256",
          "name": "requestId",
          "type": "uint256"
        },
        {
          "indexed": true,
          "internalType": "address",
          "name": "patient",
          "type": "address"
        },
        {
          "indexed": true,
          "internalType": "address",
          "name": "doctor",
          "type": "address"
        }
      ],
      "name": "AccessRevoked",
      "type": "event"
    },
    {
      "anonymous": false,
      "inputs": [
        {
          "indexed": false,
          "internalType": "uint64",
          "name": "version",
          "type": "uint64"
        }
      ],
      "name": "Initialized",
      "type": "event"
    },
    {
      "anonymous": false,
      "inputs": [
        {
          "indexed": true,
          "internalType": "bytes32",
          "name": "role",
          "type": "bytes32"
        },
        {
          "indexed": true,
          "internalType": "bytes32",
          "name": "previousAdminRole",
          "type": "bytes32"
        },
        {
          "indexed": true,
          "internalType": "bytes32",
          "name": "newAdminRole",
          "type": "bytes32"
        }
      ],
      "name": "RoleAdminChanged",
      "type": "event"
    },
    {
      "anonymous": false,
      "inputs": [
        {
          "indexed": true,
          "internalType": "bytes32",
          "name": "role",
          "type": "bytes32"
        },
        {
          "indexed": true,
          "internalType": "address",
          "name": "account",
          "type": "address"
        },
        {
          "indexed": true,
          "internalType": "address",
          "name": "sender",
          "type": "address"
        }
      ],
      "name": "RoleGranted",
      "type": "event"
    },
    {
      "anonymous": false,
      "inputs": [
        {
          "indexed": true,
          "internalType": "bytes32",
          "name": "role",
          "type": "bytes32"
        },
        {
          "indexed": true,
          "internalType": "address",
          "name": "account",
          "type": "address"
        },
        {
          "indexed": true,
          "internalType": "address",
          "name": "sender",
          "type": "address"
        }
      ],
      "name": "RoleRevoked",
      "type": "event"
    },
    {
      "anonymous": false,
      "inputs": [
        {
          "indexed": true,
          "internalType": "address",
          "name": "implementation",
          "type": "address"
        }
      ],
      "name": "Upgraded",
      "type": "event"
    },
    {
      "inputs": [],
      "name": "ADMIN_ROLE",
      "outputs": [
        {
          "internalType": "bytes32",
          "name": "",
          "type": "bytes32"
        }
      ],
      "stateMutability": "view",
      "type": "function"
    },
    {
      "inputs": [],
      "name": "DEFAULT_ADMIN_ROLE",
      "outputs": [
        {
          "internalType": "bytes32",
          "name": "",
          "type": "bytes32"
        }
      ],
      "stateMutability": "view",
      "type": "function"
    },
    {
      "inputs": [],
      "name": "UPGRADE_INTERFACE_VERSION",
      "outputs": [
        {
          "internalType": "string",
          "name": "",
          "type": "string"
        }
      ],
      "stateMutability": "view",
      "type": "function"
    },
    {
      "inputs": [
        {
          "internalType": "uint256",
          "name": "",
          "type": "uint256"
        }
      ],
      "name": "accessRequests",
      "outputs": [
        {
          "internalType": "address",
          "name": "doctor",
          "type": "address"
        },
        {
          "internalType": "address",
          "name": "patient",
          "type": "address"
        },
        {
          "internalType": "string",
          "name": "reason",
          "type": "string"
        },
        {
          "internalType": "uint256",
          "name": "requestedAt",
          "type": "uint256"
        },
        {
          "internalType": "uint256",
          "name": "expiresAt",
          "type": "uint256"
        },
        {
          "internalType": "enum AccessRequest.RequestState",
          "name": "state",
          "type": "uint8"
        }
      ],
      "stateMutability": "view",
      "type": "function"
    },
    {
      "inputs": [
        {
          "internalType": "address",
          "name": "",
          "type": "address"
        },
        {
          "internalType": "address",
          "name": "",
          "type": "address"
        }
      ],
      "name": "activeAccess",
      "outputs": [
        {
          "internalType": "uint256",
          "name": "",
          "type": "uint256"
        }
      ],
      "stateMutability": "view",
      "type": "function"
    },
    {
      "inputs": [
        {
          "internalType": "uint256",
          "name": "_requestId",
          "type": "uint256"
        },
        {
          "internalType": "uint256",
          "name": "_durationInSeconds",
          "type": "uint256"
        }
      ],
      "name": "approveAccess",
      "outputs": [],
      "stateMutability": "nonpayable",
      "type": "function"
    },
    {
      "inputs": [
        {
          "internalType": "uint256",
          "name": "_requestId",
          "type": "uint256"
        }
      ],
      "name": "denyAccess",
      "outputs": [],
      "stateMutability": "nonpayable",
      "type": "function"
    },
    {
      "inputs": [],
      "name": "doctorContract",
      "outputs": [
        {
          "internalType": "contract DoctorManagement",
          "name": "",
          "type": "address"
        }
      ],
      "stateMutability": "view",
      "type": "function"
    },
    {
      "inputs": [
        {
          "internalType": "bytes32",
          "name": "role",
          "type": "bytes32"
        }
      ],
      "name": "getRoleAdmin",
      "outputs": [
        {
          "internalType": "bytes32",
          "name": "",
          "type": "bytes32"
        }
      ],
      "stateMutability": "view",
      "type": "function"
    },
    {
      "inputs": [
        {
          "internalType": "bytes32",
          "name": "role",
          "type": "bytes32"
        },
        {
          "internalType": "address",
          "name": "account",
          "type": "address"
        }
      ],
      "name": "grantRole",
      "outputs": [],
      "stateMutability": "nonpayable",
      "type": "function"
    },
    {
      "inputs": [
        {
          "internalType": "address",
          "name": "_patient",
          "type": "address"
        },
        {
          "internalType": "address",
          "name": "_doctor",
          "type": "address"
        }
      ],
      "name": "hasAccess",
      "outputs": [
        {
          "internalType": "bool",
          "name": "",
          "type": "bool"
        }
      ],
      "stateMutability": "view",
      "type": "function"
    },
    {
      "inputs": [
        {
          "internalType": "bytes32",
          "name": "role",
          "type": "bytes32"
        },
        {
          "internalType": "address",
          "name": "account",
          "type": "address"
        }
      ],
      "name": "hasRole",
      "outputs": [
        {
          "internalType": "bool",
          "name": "",
          "type": "bool"
        }
      ],
      "stateMutability": "view",
      "type": "function"
    },
    {
      "inputs": [
        {
          "internalType": "address",
          "name": "defaultAdmin",
          "type": "address"
        },
        {
          "internalType": "address",
          "name": "_rolesContract",
          "type": "address"
        },
        {
          "internalType": "address",
          "name": "_doctorContract",
          "type": "address"
        }
      ],
      "name": "initialize",
      "outputs": [],
      "stateMutability": "nonpayable",
      "type": "function"
    },
    {
      "inputs": [],
      "name": "nextRequestId",
      "outputs": [
        {
          "internalType": "uint256",
          "name": "",
          "type": "uint256"
        }
      ],
      "stateMutability": "view",
      "type": "function"
    },
    {
      "inputs": [],
      "name": "proxiableUUID",
      "outputs": [
        {
          "internalType": "bytes32",
          "name": "",
          "type": "bytes32"
        }
      ],
      "stateMutability": "view",
      "type": "function"
    },
    {
      "inputs": [
        {
          "internalType": "bytes32",
          "name": "role",
          "type": "bytes32"
        },
        {
          "internalType": "address",
          "name": "callerConfirmation",
          "type": "address"
        }
      ],
      "name": "renounceRole",
      "outputs": [],
      "stateMutability": "nonpayable",
      "type": "function"
    },
    {
      "inputs": [
        {
          "internalType": "address",
          "name": "_patient",
          "type": "address"
        },
        {
          "internalType": "string",
          "name": "_reason",
          "type": "string"
        }
      ],
      "name": "requestAccess",
      "outputs": [],
      "stateMutability": "nonpayable",
      "type": "function"
    },
    {
      "inputs": [
        {
          "internalType": "address",
          "name": "_doctor",
          "type": "address"
        }
      ],
      "name": "revokeAccess",
      "outputs": [],
      "stateMutability": "nonpayable",
      "type": "function"
    },
    {
      "inputs": [
        {
          "internalType": "bytes32",
          "name": "role",
          "type": "bytes32"
        },
        {
          "internalType": "address",
          "name": "account",
          "type": "address"
        }
      ],
      "name": "revokeRole",
      "outputs": [],
      "stateMutability": "nonpayable",
      "type": "function"
    },
    {
      "inputs": [],
      "name": "rolesContract",
      "outputs": [
        {
          "internalType": "contract HealthChainRoles",
          "name": "",
          "type": "address"
        }
      ],
      "stateMutability": "view",
      "type": "function"
    },
    {
      "inputs": [
        {
          "internalType": "bytes4",
          "name": "interfaceId",
          "type": "bytes4"
        }
      ],
      "name": "supportsInterface",
      "outputs": [
        {
          "internalType": "bool",
          "name": "",
          "type": "bool"
        }
      ],
      "stateMutability": "view",
      "type": "function"
    },
    {
      "inputs": [
        {
          "internalType": "address",
          "name": "newImplementation",
          "type": "address"
        },
        {
          "internalType": "bytes",
          "name": "data",
          "type": "bytes"
        }
      ],
      "name": "upgradeToAndCall",
      "outputs": [],
      "stateMutability": "payable",
      "type": "function"
    }
  ],
  "bytecode": "0x60a06040523060805234801561001457600080fd5b5061001d610022565b6100d4565b7ff0c57e16840df040f15088dc2f81fe391c3923bec73e23a9662efc9c229c6a00805468010000000000000000900460ff16156100725760405163f92ee8a960e01b815260040160405180910390fd5b80546001600160401b03908116146100d15780546001600160401b0319166001600160401b0390811782556040519081527fc7f505b2f371ae2175ee4913f4499e1f2633a7b5936321eed1cdaeb6115181d29060200160405180910390a15b50565b6080516119f46100fd6000396000818161108f015281816110b8015261121d01526119f46000f3fe6080604052600436106101355760003560e01c806375b238fc116100ab578063ad3cb1cc1161006f578063ad3cb1cc14610370578063c0c53b8b146103ae578063ca53b391146103ce578063cde6c83714610406578063d547741f14610426578063f23876e91461044657600080fd5b806375b238fc146102b557806385e68531146102e95780638ca91a9a1461030957806391d148541461033b578063a217fddf1461035b57600080fd5b806336568abe116100fd57806336568abe146101ff5780633d7991cb1461021f5780634f1ef2861461025757806352d1902d1461026a578063687e2f391461027f5780636a84a9851461029f57600080fd5b806301ffc9a71461013a5780631709ef071461016f578063248a9ca31461018f5780632f2ff15d146101bd5780632f6d4a59146101df575b600080fd5b34801561014657600080fd5b5061015a6101553660046114b5565b610466565b60405190151581526020015b60405180910390f35b34801561017b57600080fd5b5061015a61018a366004611502565b61049d565b34801561019b57600080fd5b506101af6101aa366004611535565b61061b565b604051908152602001610166565b3480156101c957600080fd5b506101dd6101d836600461154e565b61063d565b005b3480156101eb57600080fd5b506101dd6101fa3660046115fd565b61065f565b34801561020b57600080fd5b506101dd61021a36600461154e565b61092e565b34801561022b57600080fd5b506101af61023a366004611502565b600460209081526000928352604080842090915290825290205481565b6101dd6102653660046115fd565b610966565b34801561027657600080fd5b506101af610985565b34801561028b57600080fd5b506101dd61029a366004611535565b6109a2565b3480156102ab57600080fd5b506101af60025481565b3480156102c157600080fd5b506101af7fa49807205ce4d355092ef5a8a18f56e8913cf4a201fbe287825b095693c2177581565b3480156102f557600080fd5b506101dd61030436600461165f565b610aab565b34801561031557600080fd5b50610329610324366004611535565b610b88565b604051610166969594939291906116d6565b34801561034757600080fd5b5061015a61035636600461154e565b610c57565b34801561036757600080fd5b506101af600081565b34801561037c57600080fd5b506103a1604051806040016040528060058152602001640352e302e360dc1b81525081565b604051610166919061173f565b3480156103ba57600080fd5b506101dd6103c9366004611752565b610c8f565b3480156103da57600080fd5b506000546103ee906001600160a01b031681565b6040516001600160a01b039091168152602001610166565b34801561041257600080fd5b506101dd610421366004611795565b610df6565b34801561043257600080fd5b506101dd61044136600461154e565b610f33565b34801561045257600080fd5b506001546103ee906001600160a01b031681565b60006001600160e01b03198216637965db0b60e01b148061049757506301ffc9a760e01b6001600160e01b03198316145b92915050565b6001600160a01b0380831660009081526004602090815260408083209385168352929052908120548082036104d6576000915050610497565b6000818152600360209081526040808320815160c08101835281546001600160a01b03908116825260018301541693810193909352600281018054919284019161051f906117b7565b80601f016020809104026020016040519081016040528092919081815260200182805461054b906117b7565b80156105985780601f1061056d57610100808354040283529160200191610598565b820191906000526020600020905b81548152906001019060200180831161057b57829003601f168201915b5050509183525050600382015460208201526004820154604082015260058083015460609092019160ff16908111156105d3576105d36116c0565b60058111156105e4576105e46116c0565b905250905060028160a001516005811115610601576106016116c0565b148015610612575080608001514211155b95945050505050565b600090815260008051602061199f833981519152602052604090206001015490565b6106468261061b565b61064f81610f4f565b6106598383610f5c565b50505050565b600154604051634cb2206360e11b81523360048201526001600160a01b039091169063996440c690602401602060405180830381865afa1580156106a7573d6000803e3d6000fd5b505050506040513d601f19601f820116820180604052508101906106cb91906117f1565b61072c5760405162461bcd60e51b815260206004820152602760248201527f43616c6c6572206973206e6f7420616e20616374697665207665726966696564604482015266103237b1ba37b960c91b60648201526084015b60405180910390fd5b600054604051638f9c79ed60e01b81526001600160a01b03848116600483015290911690638f9c79ed90602401602060405180830381865afa158015610776573d6000803e3d6000fd5b505050506040513d601f19601f8201168201806040525081019061079a91906117f1565b6107f15760405162461bcd60e51b815260206004820152602260248201527f546172676574206973206e6f74206120726567697374657265642070617469656044820152611b9d60f21b6064820152608401610723565b600280546000918261080283611829565b909155506040805160c0810182523381526001600160a01b03861660208201529081018490524260608201526000608082015290915060a0810160019052600082815260036020908152604091829020835181546001600160a01b03199081166001600160a01b03928316178355928501516001830180549094169116179091559082015160028201906108969082611892565b50606082015181600301556080820151816004015560a08201518160050160006101000a81548160ff021916908360058111156108d5576108d56116c0565b0217905550905050826001600160a01b0316336001600160a01b0316827f21eb886073c5fec0f227f76ef8335d82939c7aa4b537be2e0943f4c1dc74553e85604051610921919061173f565b60405180910390a4505050565b6001600160a01b03811633146109575760405163334bd91960e11b815260040160405180910390fd5b6109618282611008565b505050565b61096e611084565b6109778261112b565b6109818282611155565b5050565b600061098f611212565b5060008051602061197f83398151915290565b600081815260036020526040902060018101546001600160a01b031633146109ff5760405162461bcd60e51b815260206004820152601060248201526f139bdd081e5bdd5c881c995c5d595cdd60821b6044820152606401610723565b600160058083015460ff1690811115610a1a57610a1a6116c0565b14610a5d5760405162461bcd60e51b815260206004820152601360248201527252657175657374206e6f742070656e64696e6760681b6044820152606401610723565b60058101805460ff1916600317905580546040516001600160a01b0390911690339084907f675d0665e47d3038926572cb9031824da646e111df2a3092b2db3e46834fe30090600090a45050565b3360009081526004602090815260408083206001600160a01b038516845290915281205490819003610b125760405162461bcd60e51b815260206004820152601060248201526f4e6f206163746976652061636365737360801b6044820152606401610723565b600081815260036020908152604080832060058101805460ff191660049081179091554281830155338086529084528285206001600160a01b03881680875294528285208590559151909385917f260547d4038414ef72f081dcde91825693dff9bc433178f3e92ad36e0cd227509190a4505050565b6003602052600090815260409020805460018201546002830180546001600160a01b03938416949290931692610bbd906117b7565b80601f0160208091040260200160405190810160405280929190818152602001828054610be9906117b7565b8015610c365780601f10610c0b57610100808354040283529160200191610c36565b820191906000526020600020905b815481529060010190602001808311610c1957829003601f168201915b50505050600383015460048401546005909401549293909290915060ff1686565b600091825260008051602061199f833981519152602090815260408084206001600160a01b0393909316845291905290205460ff1690565b6000610c9961125b565b805490915060ff600160401b820416159067ffffffffffffffff16600081158015610cc15750825b905060008267ffffffffffffffff166001148015610cde5750303b155b905081158015610cec575080155b15610d0a5760405163f92ee8a960e01b815260040160405180910390fd5b845467ffffffffffffffff191660011785558315610d3457845460ff60401b1916600160401b1785555b610d3c611284565b610d47600089610f5c565b50610d727fa49807205ce4d355092ef5a8a18f56e8913cf4a201fbe287825b095693c2177589610f5c565b50600080546001600160a01b03808a166001600160a01b03199283161790925560018054928916929091169190911781556002558315610dec57845460ff60401b19168555604051600181527fc7f505b2f371ae2175ee4913f4499e1f2633a7b5936321eed1cdaeb6115181d29060200160405180910390a15b5050505050505050565b600082815260036020526040902060018101546001600160a01b03163314610e535760405162461bcd60e51b815260206004820152601060248201526f139bdd081e5bdd5c881c995c5d595cdd60821b6044820152606401610723565b600160058083015460ff1690811115610e6e57610e6e6116c0565b14610eb15760405162461bcd60e51b815260206004820152601360248201527252657175657374206e6f742070656e64696e6760681b6044820152606401610723565b60058101805460ff19166002179055610eca8242611952565b60048281019182553360008181526020928352604080822086546001600160a01b03908116845290855291819020889055855494549051908152931692909186917f749ea682cf9d481ae7655441dabc5402d852aaf3a4f3fb44a5ed6fb83b70213c9101610921565b610f3c8261061b565b610f4581610f4f565b6106598383611008565b610f59813361128c565b50565b600060008051602061199f833981519152610f778484610c57565b610ff7576000848152602082815260408083206001600160a01b03871684529091529020805460ff19166001179055610fad3390565b6001600160a01b0316836001600160a01b0316857f2f8788117e7eff1d82e926ec794901d17c78024a50270940304540a733656f0d60405160405180910390a46001915050610497565b6000915050610497565b5092915050565b600060008051602061199f8339815191526110238484610c57565b15610ff7576000848152602082815260408083206001600160a01b0387168085529252808320805460ff1916905551339287917ff6391f5c32d9c69d2a47ea670b442974b53935d1edc7fd64eb21e047a839171b9190a46001915050610497565b306001600160a01b037f000000000000000000000000000000000000000000000000000000000000000016148061110b57507f00000000000000000000000000000000000000000000000000000000000000006001600160a01b03166110ff60008051602061197f833981519152546001600160a01b031690565b6001600160a01b031614155b156111295760405163703e46dd60e11b815260040160405180910390fd5b565b7fa49807205ce4d355092ef5a8a18f56e8913cf4a201fbe287825b095693c2177561098181610f4f565b816001600160a01b03166352d1902d6040518163ffffffff1660e01b8152600401602060405180830381865afa9250505080156111af575060408051601f3d908101601f191682019092526111ac91810190611965565b60015b6111d757604051634c9c8ce360e01b81526001600160a01b0383166004820152602401610723565b60008051602061197f833981519152811461120857604051632a87526960e21b815260048101829052602401610723565b61096183836112c5565b306001600160a01b037f000000000000000000000000000000000000000000000000000000000000000016146111295760405163703e46dd60e11b815260040160405180910390fd5b6000807ff0c57e16840df040f15088dc2f81fe391c3923bec73e23a9662efc9c229c6a00610497565b61112961131b565b6112968282610c57565b6109815760405163e2517d3f60e01b81526001600160a01b038216600482015260248101839052604401610723565b6112ce82611340565b6040516001600160a01b038316907fbc7cd75a20ee27fd9adebab32041f755214dbc6bffa90cc0225b39da2e5c2d3b90600090a28051156113135761096182826113a5565b610981611441565b611323611460565b61112957604051631afcd79f60e31b815260040160405180910390fd5b806001600160a01b03163b60000361137657604051634c9c8ce360e01b81526001600160a01b0382166004820152602401610723565b60008051602061197f83398151915280546001600160a01b0319166001600160a01b0392909216919091179055565b606060006113b3848461147a565b90508080156113d6575060003d11806113d657506000846001600160a01b03163b115b156113eb576113e361148f565b915050610497565b801561141557604051639996b31560e01b81526001600160a01b0385166004820152602401610723565b3d15611428576114236114a9565b611001565b60405163d6bda27560e01b815260040160405180910390fd5b34156111295760405163b398979f60e01b815260040160405180910390fd5b600061146a61125b565b54600160401b900460ff16919050565b6000806000835160208501865af49392505050565b6040513d81523d6000602083013e3d602001810160405290565b6040513d6000823e3d81fd5b6000602082840312156114c757600080fd5b81356001600160e01b0319811681146114df57600080fd5b9392505050565b80356001600160a01b03811681146114fd57600080fd5b919050565b6000806040838503121561151557600080fd5b61151e836114e6565b915061152c602084016114e6565b90509250929050565b60006020828403121561154757600080fd5b5035919050565b6000806040838503121561156157600080fd5b8235915061152c602084016114e6565b634e487b7160e01b600052604160045260246000fd5b600067ffffffffffffffff808411156115a2576115a2611571565b604051601f8501601f19908116603f011681019082821181831017156115ca576115ca611571565b816040528093508581528686860111156115e357600080fd5b858560208301376000602087830101525050509392505050565b6000806040838503121561161057600080fd5b611619836114e6565b9150602083013567ffffffffffffffff81111561163557600080fd5b8301601f8101851361164657600080fd5b61165585823560208401611587565b9150509250929050565b60006020828403121561167157600080fd5b6114df826114e6565b6000815180845260005b818110156116a057602081850181015186830182015201611684565b506000602082860101526020601f19601f83011685010191505092915050565b634e487b7160e01b600052602160045260246000fd5b6001600160a01b0387811682528616602082015260c0604082018190526000906117029083018761167a565b90508460608301528360808301526006831061172e57634e487b7160e01b600052602160045260246000fd5b8260a0830152979650505050505050565b6020815260006114df602083018461167a565b60008060006060848603121561176757600080fd5b611770846114e6565b925061177e602085016114e6565b915061178c604085016114e6565b90509250925092565b600080604083850312156117a857600080fd5b50508035926020909101359150565b600181811c908216806117cb57607f821691505b6020821081036117eb57634e487b7160e01b600052602260045260246000fd5b50919050565b60006020828403121561180357600080fd5b815180151581146114df57600080fd5b634e487b7160e01b600052601160045260246000fd5b60006001820161183b5761183b611813565b5060010190565b601f821115610961576000816000526020600020601f850160051c8101602086101561186b5750805b601f850160051c820191505b8181101561188a57828155600101611877565b505050505050565b815167ffffffffffffffff8111156118ac576118ac611571565b6118c0816118ba84546117b7565b84611842565b602080601f8311600181146118f557600084156118dd5750858301515b600019600386901b1c1916600185901b17855561188a565b600085815260208120601f198616915b8281101561192457888601518255948401946001909101908401611905565b50858210156119425787850151600019600388901b60f8161c191681555b5050505050600190811b01905550565b8082018082111561049757610497611813565b60006020828403121561197757600080fd5b505191905056fe360894a13ba1a3210667c828492db98dca3e2076cc3735a920a3ca505d382bbc02dd7bc7dec4dceedda775e58dd541e08a116c6c53815c0bd028192f7b626800a2646970667358221220f1a21fb494f04046b043a2507dfdafe9eae3e9dfa6b98aec1658841a16fad64d64736f6c63430008180033",
  "linkReferences": {},
  "deployedLinkReferences": {}
}