{
  "_format": "hh-sol-artifact-1",
  "contractName": "HealthAnalytics",
  "sourceName": "contracts/HealthAnalytics.sol",
  "abi": [
    {
      "inputs": [],
      "stateMutability": "nonpayable",
      "type": "constructor"
    },
    {
      "inputs": [],
      "name": "AccessControlBadConfirmation",
      "type": "error"
    },
    {
      "inputs": [
        {
          "internalType": "address",
          "name": "account",
          "type": "address"
        },
        {
          "internalType": "bytes32",
          "name": "neededRole",
          "type": "bytes32"
        }
      ],
      "name": "AccessControlUnauthorizedAccount",
      "type": "error"
    },
    {
      "inputs": [
        {
          "internalType": "address",
          "name": "target",
          "type": "address"
        }
      ],
      "name": "AddressEmptyCode",
      "type": "error"
    },
    {
      "inputs": [
        {
          "internalType": "address",
          "name": "implementation",
          "type": "address"
        }
      ],
      "name": "ERC1967InvalidImplementation",
      "type": "error"
    },
    {
      "inputs": [],
      "name": "ERC1967NonPayable",
      "type": "error"
    },
    {
      "inputs": [],
      "name": "FailedCall",
      "type": "error"
    },
    {
      "inputs": [],
      "name": "InvalidInitialization",
      "type": "error"
    },
    {
      "inputs": [],
      "name": "NotInitializing",
      "type": "error"
    },
    {
      "inputs": [],
      "name": "UUPSUnauthorizedCallContext",
      "type": "error"
    },
    {
      "inputs": [
        {
          "internalType": "bytes32",
          "name": "slot",
          "type": "bytes32"
        }
      ],
      "name": "UUPSUnsupportedProxiableUUID",
      "type": "error"
    },
    {
      "anonymous": false,
      "inputs": [
        {
          "indexed": true,
          "internalType": "bytes32",
          "name": "dataHash",
          "type": "bytes32"
        },
        {
          "indexed": false,
          "internalType": "string",
          "name": "category",
          "type": "string"
        }
      ],
      "name": "DataDonated",
      "type": "event"
    },
    {
      "anonymous": false,
      "inputs": [
        {
          "indexed": false,
          "internalType": "uint64",
          "name": "version",
          "type": "uint64"
        }
      ],
      "name": "Initialized",
      "type": "event"
    },
    {
      "anonymous": false,
      "inputs": [
        {
          "indexed": true,
          "internalType": "address",
          "name": "patient",
          "type": "address"
        },
        {
          "indexed": false,
          "internalType": "bool",
          "name": "status",
          "type": "bool"
        }
      ],
      "name": "OptInStatusChanged",
      "type": "event"
    },
    {
      "anonymous": false,
      "inputs": [
        {
          "indexed": true,
          "internalType": "bytes32",
          "name": "role",
          "type": "bytes32"
        },
        {
          "indexed": true,
          "internalType": "bytes32",
          "name": "previousAdminRole",
          "type": "bytes32"
        },
        {
          "indexed": true,
          "internalType": "bytes32",
          "name": "newAdminRole",
          "type": "bytes32"
        }
      ],
      "name": "RoleAdminChanged",
      "type": "event"
    },
    {
      "anonymous": false,
      "inputs": [
        {
          "indexed": true,
          "internalType": "bytes32",
          "name": "role",
          "type": "bytes32"
        },
        {
          "indexed": true,
          "internalType": "address",
          "name": "account",
          "type": "address"
        },
        {
          "indexed": true,
          "internalType": "address",
          "name": "sender",
          "type": "address"
        }
      ],
      "name": "RoleGranted",
      "type": "event"
    },
    {
      "anonymous": false,
      "inputs": [
        {
          "indexed": true,
          "internalType": "bytes32",
          "name": "role",
          "type": "bytes32"
        },
        {
          "indexed": true,
          "internalType": "address",
          "name": "account",
          "type": "address"
        },
        {
          "indexed": true,
          "internalType": "address",
          "name": "sender",
          "type": "address"
        }
      ],
      "name": "RoleRevoked",
      "type": "event"
    },
    {
      "anonymous": false,
      "inputs": [
        {
          "indexed": true,
          "internalType": "address",
          "name": "implementation",
          "type": "address"
        }
      ],
      "name": "Upgraded",
      "type": "event"
    },
    {
      "inputs": [],
      "name": "ADMIN_ROLE",
      "outputs": [
        {
          "internalType": "bytes32",
          "name": "",
          "type": "bytes32"
        }
      ],
      "stateMutability": "view",
      "type": "function"
    },
    {
      "inputs": [],
      "name": "DEFAULT_ADMIN_ROLE",
      "outputs": [
        {
          "internalType": "bytes32",
          "name": "",
          "type": "bytes32"
        }
      ],
      "stateMutability": "view",
      "type": "function"
    },
    {
      "inputs": [],
      "name": "RESEARCHER_ROLE",
      "outputs": [
        {
          "internalType": "bytes32",
          "name": "",
          "type": "bytes32"
        }
      ],
      "stateMutability": "view",
      "type": "function"
    },
    {
      "inputs": [],
      "name": "UPGRADE_INTERFACE_VERSION",
      "outputs": [
        {
          "internalType": "string",
          "name": "",
          "type": "string"
        }
      ],
      "stateMutability": "view",
      "type": "function"
    },
    {
      "inputs": [
        {
          "internalType": "uint256",
          "name": "",
          "type": "uint256"
        }
      ],
      "name": "analyticsPool",
      "outputs": [
        {
          "internalType": "bytes32",
          "name": "dataHash",
          "type": "bytes32"
        },
        {
          "internalType": "uint256",
          "name": "timestamp",
          "type": "uint256"
        },
        {
          "internalType": "string",
          "name": "dataCategory",
          "type": "string"
        }
      ],
      "stateMutability": "view",
      "type": "function"
    },
    {
      "inputs": [
        {
          "internalType": "bytes32",
          "name": "_dataHash",
          "type": "bytes32"
        },
        {
          "internalType": "string",
          "name": "_category",
          "type": "string"
        }
      ],
      "name": "donateData",
      "outputs": [],
      "stateMutability": "nonpayable",
      "type": "function"
    },
    {
      "inputs": [
        {
          "internalType": "bytes32",
          "name": "role",
          "type": "bytes32"
        }
      ],
      "name": "getRoleAdmin",
      "outputs": [
        {
          "internalType": "bytes32",
          "name": "",
          "type": "bytes32"
        }
      ],
      "stateMutability": "view",
      "type": "function"
    },
    {
      "inputs": [],
      "name": "getTotalDonatedData",
      "outputs": [
        {
          "internalType": "uint256",
          "name": "",
          "type": "uint256"
        }
      ],
      "stateMutability": "view",
      "type": "function"
    },
    {
      "inputs": [
        {
          "internalType": "bytes32",
          "name": "role",
          "type": "bytes32"
        },
        {
          "internalType": "address",
          "name": "account",
          "type": "address"
        }
      ],
      "name": "grantRole",
      "outputs": [],
      "stateMutability": "nonpayable",
      "type": "function"
    },
    {
      "inputs": [
        {
          "internalType": "bytes32",
          "name": "role",
          "type": "bytes32"
        },
        {
          "internalType": "address",
          "name": "account",
          "type": "address"
        }
      ],
      "name": "hasRole",
      "outputs": [
        {
          "internalType": "bool",
          "name": "",
          "type": "bool"
        }
      ],
      "stateMutability": "view",
      "type": "function"
    },
    {
      "inputs": [
        {
          "internalType": "address",
          "name": "defaultAdmin",
          "type": "address"
        },
        {
          "internalType": "address",
          "name": "_rolesContract",
          "type": "address"
        }
      ],
      "name": "initialize",
      "outputs": [],
      "stateMutability": "nonpayable",
      "type": "function"
    },
    {
      "inputs": [
        {
          "internalType": "address",
          "name": "",
          "type": "address"
        }
      ],
      "name": "patientOptIn",
      "outputs": [
        {
          "internalType": "bool",
          "name": "",
          "type": "bool"
        }
      ],
      "stateMutability": "view",
      "type": "function"
    },
    {
      "inputs": [],
      "name": "proxiableUUID",
      "outputs": [
        {
          "internalType": "bytes32",
          "name": "",
          "type": "bytes32"
        }
      ],
      "stateMutability": "view",
      "type": "function"
    },
    {
      "inputs": [
        {
          "internalType": "bytes32",
          "name": "role",
          "type": "bytes32"
        },
        {
          "internalType": "address",
          "name": "callerConfirmation",
          "type": "address"
        }
      ],
      "name": "renounceRole",
      "outputs": [],
      "stateMutability": "nonpayable",
      "type": "function"
    },
    {
      "inputs": [
        {
          "internalType": "bytes32",
          "name": "role",
          "type": "bytes32"
        },
        {
          "internalType": "address",
          "name": "account",
          "type": "address"
        }
      ],
      "name": "revokeRole",
      "outputs": [],
      "stateMutability": "nonpayable",
      "type": "function"
    },
    {
      "inputs": [],
      "name": "rolesContract",
      "outputs": [
        {
          "internalType": "contract HealthChainRoles",
          "name": "",
          "type": "address"
        }
      ],
      "stateMutability": "view",
      "type": "function"
    },
    {
      "inputs": [
        {
          "internalType": "bytes4",
          "name": "interfaceId",
          "type": "bytes4"
        }
      ],
      "name": "supportsInterface",
      "outputs": [
        {
          "internalType": "bool",
          "name": "",
          "type": "bool"
        }
      ],
      "stateMutability": "view",
      "type": "function"
    },
    {
      "inputs": [
        {
          "internalType": "bool",
          "name": "_status",
          "type": "bool"
        }
      ],
      "name": "toggleOptIn",
      "outputs": [],
      "stateMutability": "nonpayable",
      "type": "function"
    },
    {
      "inputs": [
        {
          "internalType": "address",
          "name": "newImplementation",
          "type": "address"
        },
        {
          "internalType": "bytes",
          "name": "data",
          "type": "bytes"
        }
      ],
      "name": "upgradeToAndCall",
      "outputs": [],
      "stateMutability": "payable",
      "type": "function"
    }
  ],
  "bytecode": "0x60a06040523060805234801561001457600080fd5b5061001d610022565b6100d4565b7ff0c57e16840df040f15088dc2f81fe391c3923bec73e23a9662efc9c229c6a00805468010000000000000000900460ff16156100725760405163f92ee8a960e01b815260040160405180910390fd5b80546001600160401b03908116146100d15780546001600160401b0319166001600160401b0390811782556040519081527fc7f505b2f371ae2175ee4913f4499e1f2633a7b5936321eed1cdaeb6115181d29060200160405180910390a15b50565b60805161143c6100fd60003960008181610bb101528181610bda0152610d3d015261143c6000f3fe6080604052600436106101145760003560e01c806379ffdb23116100a0578063b55f6d3011610064578063b55f6d3014610331578063ca53b39114610360578063d547741f14610398578063e89fe69d146103b8578063f9ea65c4146103d857600080fd5b806379ffdb231461026e5780639166350e1461028e57806391d14854146102be578063a217fddf146102de578063ad3cb1cc146102f357600080fd5b8063485cc955116100e7578063485cc955146101be5780634f1ef286146101de57806350f2aab3146101f157806352d1902d1461022557806375b238fc1461023a57600080fd5b806301ffc9a714610119578063248a9ca31461014e5780632f2ff15d1461017c57806336568abe1461019e575b600080fd5b34801561012557600080fd5b50610139610134366004610fa4565b6103ed565b60405190151581526020015b60405180910390f35b34801561015a57600080fd5b5061016e610169366004610fd5565b610424565b604051908152602001610145565b34801561018857600080fd5b5061019c61019736600461100a565b610446565b005b3480156101aa57600080fd5b5061019c6101b936600461100a565b610468565b3480156101ca57600080fd5b5061019c6101d9366004611036565b6104a0565b61019c6101ec3660046110ec565b6105ee565b3480156101fd57600080fd5b5061016e7f7765bfe615aab9fb9a16bd4c5c9b353f39dae79ca7da86094b0a74ea8a89e59a81565b34801561023157600080fd5b5061016e61060d565b34801561024657600080fd5b5061016e7fa49807205ce4d355092ef5a8a18f56e8913cf4a201fbe287825b095693c2177581565b34801561027a57600080fd5b5061019c61028936600461114e565b61062a565b34801561029a57600080fd5b506101396102a936600461117f565b60026020526000908152604090205460ff1681565b3480156102ca57600080fd5b506101396102d936600461100a565b610829565b3480156102ea57600080fd5b5061016e600081565b3480156102ff57600080fd5b50610324604051806040016040528060058152602001640352e302e360dc1b81525081565b60405161014591906111e0565b34801561033d57600080fd5b5061035161034c366004610fd5565b610861565b604051610145939291906111f3565b34801561036c57600080fd5b50600054610380906001600160a01b031681565b6040516001600160a01b039091168152602001610145565b3480156103a457600080fd5b5061019c6103b336600461100a565b610923565b3480156103c457600080fd5b5061019c6103d3366004611229565b61093f565b3480156103e457600080fd5b5060015461016e565b60006001600160e01b03198216637965db0b60e01b148061041e57506301ffc9a760e01b6001600160e01b03198316145b92915050565b60009081526000805160206113e7833981519152602052604090206001015490565b61044f82610424565b61045881610a3e565b6104628383610a4b565b50505050565b6001600160a01b03811633146104915760405163334bd91960e11b815260040160405180910390fd5b61049b8282610af7565b505050565b60006104aa610b73565b805490915060ff600160401b820416159067ffffffffffffffff166000811580156104d25750825b905060008267ffffffffffffffff1660011480156104ef5750303b155b9050811580156104fd575080155b1561051b5760405163f92ee8a960e01b815260040160405180910390fd5b845467ffffffffffffffff19166001178555831561054557845460ff60401b1916600160401b1785555b61054d610b9c565b610558600088610a4b565b506105837fa49807205ce4d355092ef5a8a18f56e8913cf4a201fbe287825b095693c2177588610a4b565b50600080546001600160a01b0319166001600160a01b03881617905583156105e557845460ff60401b19168555604051600181527fc7f505b2f371ae2175ee4913f4499e1f2633a7b5936321eed1cdaeb6115181d29060200160405180910390a15b50505050505050565b6105f6610ba6565b6105ff82610c4b565b6106098282610c75565b5050565b6000610617610d32565b506000805160206113c783398151915290565b600054604051638f9c79ed60e01b81523360048201526001600160a01b0390911690638f9c79ed90602401602060405180830381865afa158015610672573d6000803e3d6000fd5b505050506040513d601f19601f820116820180604052508101906106969190611246565b6106d95760405162461bcd60e51b815260206004820152600f60248201526e125b9d985b1a59081c185d1a595b9d608a1b60448201526064015b60405180910390fd5b3360009081526002602052604090205460ff166107385760405162461bcd60e51b815260206004820152601860248201527f50617469656e7420686173206e6f74206f7074656420696e000000000000000060448201526064016106d0565b604080516060810182528381524260208201908152918101838152600180548082018255600091909152825160039091027fb10e2d527612073b26eecdfd717e6a320cf44b4afac2b0732d9fcbe2b7fa0cf6810191825593517fb10e2d527612073b26eecdfd717e6a320cf44b4afac2b0732d9fcbe2b7fa0cf78501559051919290917fb10e2d527612073b26eecdfd717e6a320cf44b4afac2b0732d9fcbe2b7fa0cf8909101906107ea90826112ed565b505050817f91f23942b5f31a362fbb7f45c84b83baa116ab1017e26360f752613c0fb6220b8260405161081d91906111e0565b60405180910390a25050565b60009182526000805160206113e7833981519152602090815260408084206001600160a01b0393909316845291905290205460ff1690565b6001818154811061087157600080fd5b90600052602060002090600302016000915090508060000154908060010154908060020180546108a090611263565b80601f01602080910402602001604051908101604052809291908181526020018280546108cc90611263565b80156109195780601f106108ee57610100808354040283529160200191610919565b820191906000526020600020905b8154815290600101906020018083116108fc57829003601f168201915b5050505050905083565b61092c82610424565b61093581610a3e565b6104628383610af7565b600054604051638f9c79ed60e01b81523360048201526001600160a01b0390911690638f9c79ed90602401602060405180830381865afa158015610987573d6000803e3d6000fd5b505050506040513d601f19601f820116820180604052508101906109ab9190611246565b6109e95760405162461bcd60e51b815260206004820152600f60248201526e125b9d985b1a59081c185d1a595b9d608a1b60448201526064016106d0565b33600081815260026020908152604091829020805460ff191685151590811790915591519182527fda1c362bb53d8f257d4ea387440aa7430d520174f1f0e284f15002624b319543910160405180910390a250565b610a488133610d7b565b50565b60006000805160206113e7833981519152610a668484610829565b610ae6576000848152602082815260408083206001600160a01b03871684529091529020805460ff19166001179055610a9c3390565b6001600160a01b0316836001600160a01b0316857f2f8788117e7eff1d82e926ec794901d17c78024a50270940304540a733656f0d60405160405180910390a4600191505061041e565b600091505061041e565b5092915050565b60006000805160206113e7833981519152610b128484610829565b15610ae6576000848152602082815260408083206001600160a01b0387168085529252808320805460ff1916905551339287917ff6391f5c32d9c69d2a47ea670b442974b53935d1edc7fd64eb21e047a839171b9190a4600191505061041e565b6000807ff0c57e16840df040f15088dc2f81fe391c3923bec73e23a9662efc9c229c6a0061041e565b610ba4610db4565b565b306001600160a01b037f0000000000000000000000000000000000000000000000000000000000000000161480610c2d57507f00000000000000000000000000000000000000000000000000000000000000006001600160a01b0316610c216000805160206113c7833981519152546001600160a01b031690565b6001600160a01b031614155b15610ba45760405163703e46dd60e11b815260040160405180910390fd5b7fa49807205ce4d355092ef5a8a18f56e8913cf4a201fbe287825b095693c2177561060981610a3e565b816001600160a01b03166352d1902d6040518163ffffffff1660e01b8152600401602060405180830381865afa925050508015610ccf575060408051601f3d908101601f19168201909252610ccc918101906113ad565b60015b610cf757604051634c9c8ce360e01b81526001600160a01b03831660048201526024016106d0565b6000805160206113c78339815191528114610d2857604051632a87526960e21b8152600481018290526024016106d0565b61049b8383610dd9565b306001600160a01b037f00000000000000000000000000000000000000000000000000000000000000001614610ba45760405163703e46dd60e11b815260040160405180910390fd5b610d858282610829565b6106095760405163e2517d3f60e01b81526001600160a01b0382166004820152602481018390526044016106d0565b610dbc610e2f565b610ba457604051631afcd79f60e31b815260040160405180910390fd5b610de282610e49565b6040516001600160a01b038316907fbc7cd75a20ee27fd9adebab32041f755214dbc6bffa90cc0225b39da2e5c2d3b90600090a2805115610e275761049b8282610eae565b610609610f4a565b6000610e39610b73565b54600160401b900460ff16919050565b806001600160a01b03163b600003610e7f57604051634c9c8ce360e01b81526001600160a01b03821660048201526024016106d0565b6000805160206113c783398151915280546001600160a01b0319166001600160a01b0392909216919091179055565b60606000610ebc8484610f69565b9050808015610edf575060003d1180610edf57506000846001600160a01b03163b115b15610ef457610eec610f7e565b91505061041e565b8015610f1e57604051639996b31560e01b81526001600160a01b03851660048201526024016106d0565b3d15610f3157610f2c610f98565b610af0565b60405163d6bda27560e01b815260040160405180910390fd5b3415610ba45760405163b398979f60e01b815260040160405180910390fd5b6000806000835160208501865af49392505050565b6040513d81523d6000602083013e3d602001810160405290565b6040513d6000823e3d81fd5b600060208284031215610fb657600080fd5b81356001600160e01b031981168114610fce57600080fd5b9392505050565b600060208284031215610fe757600080fd5b5035919050565b80356001600160a01b038116811461100557600080fd5b919050565b6000806040838503121561101d57600080fd5b8235915061102d60208401610fee565b90509250929050565b6000806040838503121561104957600080fd5b61105283610fee565b915061102d60208401610fee565b634e487b7160e01b600052604160045260246000fd5b600067ffffffffffffffff8084111561109157611091611060565b604051601f8501601f19908116603f011681019082821181831017156110b9576110b9611060565b816040528093508581528686860111156110d257600080fd5b858560208301376000602087830101525050509392505050565b600080604083850312156110ff57600080fd5b61110883610fee565b9150602083013567ffffffffffffffff81111561112457600080fd5b8301601f8101851361113557600080fd5b61114485823560208401611076565b9150509250929050565b6000806040838503121561116157600080fd5b82359150602083013567ffffffffffffffff81111561112457600080fd5b60006020828403121561119157600080fd5b610fce82610fee565b6000815180845260005b818110156111c0576020818501810151868301820152016111a4565b506000602082860101526020601f19601f83011685010191505092915050565b602081526000610fce602083018461119a565b838152826020820152606060408201526000611212606083018461119a565b95945050505050565b8015158114610a4857600080fd5b60006020828403121561123b57600080fd5b8135610fce8161121b565b60006020828403121561125857600080fd5b8151610fce8161121b565b600181811c9082168061127757607f821691505b60208210810361129757634e487b7160e01b600052602260045260246000fd5b50919050565b601f82111561049b576000816000526020600020601f850160051c810160208610156112c65750805b601f850160051c820191505b818110156112e5578281556001016112d2565b505050505050565b815167ffffffffffffffff81111561130757611307611060565b61131b816113158454611263565b8461129d565b602080601f83116001811461135057600084156113385750858301515b600019600386901b1c1916600185901b1785556112e5565b600085815260208120601f198616915b8281101561137f57888601518255948401946001909101908401611360565b508582101561139d5787850151600019600388901b60f8161c191681555b5050505050600190811b01905550565b6000602082840312156113bf57600080fd5b505191905056fe360894a13ba1a3210667c828492db98dca3e2076cc3735a920a3ca505d382bbc02dd7bc7dec4dceedda775e58dd541e08a116c6c53815c0bd028192f7b626800a26469706673582212204c9671ff1f472efb79c61965ef0218a4e984a4c836bbcf9919b9fdd4d76e195964736f6c63430008180033",
  "linkReferences": {},
  "deployedLinkReferences": {}
}